:100000000C9435000C945D000C945D000C945D0024
:100010000C945D000C945D000C945D000C945D00EC
:100020000C945D000C945D000C945D000C945D00DC
:100030000C945D000C945D000C945D000C945D00CC
:100040000C9418050C945D000C94BE010C941002E5
:100050000C945D000C945D000C945D000C945D00AC
:100060000C945D000C945D00810311241FBECFEF42
:10007000D8E0DEBFCDBF11E0A0E0B1E0E6E1FCE0FA
:1000800002C005900D92AC33B107D9F712E0ACE392
:10009000B1E001C01D92A430B107E1F710E0CAE65B
:1000A000D0E004C02297FE010E940506C836D107A1
:1000B000C9F70E94D8030C9409060C9400006F92B3
:1000C0007F928F929F92AF92BF92CF92DF92EF92E8
:1000D000FF920F931F9380EC94EDA1E0B0E002C17A
:1000E000A801970130704070507020934001309308
:1000F000410140934201509343018F2D90E0A0E0D5
:10010000B0E08093440190934501A0934601B093E1
:100110004701C801AA27BB27809348019093490152
:10012000A0934A01B0934B0160913E0170913F0151
:1001300080E591E0422F0E94B1016091270170910A
:10014000280180E591E0409144010E94B101609155
:10015000290170912A0180E591E0409148010E94B7
:10016000B10160913C0170913D0180E591E00E94F8
:10017000AA0160913E0170913F0180E591E00E94EB
:10018000AA01682E77248824992460912701709110
:10019000280180E591E00E94AA01A82EBB24CC246E
:1001A000DD246091290170912A0180E591E00E948F
:1001B000AA01E82EFF2400E010E089ED91E060E064
:1001C00071E00E94150560913E0170913F0189ED3B
:1001D00091E04AE050E00E94020589ED91E066E07E
:1001E00071E00E94150589ED91E0B401A3012AE0B8
:1001F00030E00E94B30489ED91E06EE071E00E946E
:100200001505609127017091280189ED91E04AE080
:1002100050E00E94020589ED91E066E071E00E94E5
:10022000150589ED91E0B601A5012AE030E00E94B4
:10023000B30489ED91E06EE071E00E9415056091D4
:10024000290170912A0189ED91E04AE050E00E9475
:10025000020589ED91E066E071E00E94150589EDE7
:1002600091E0B801A7012AE030E00E94B30489EDD3
:1002700091E066E171E00E94150589ED91E068E189
:1002800071E00E941505102F0F2DFE2CEE24EA0CB4
:10029000FB1C0C1D1D1D102F0F2DFE2CEE24E60C3B
:1002A000F71C081D191D89ED91E0B801A7012AE08E
:1002B00030E00E94B30489ED91E00E941304809124
:1002C0004C0190914D01A0914E01B0914F018F339F
:1002D00022E492072FE0A20720E0B207F1F0019696
:1002E000A11DB11D80934C0190934D01A0934E012F
:1002F000B0934F01E0904C01F0904D0100914E0100
:1003000010914F0180E4E81682E4F8068FE00807B8
:1003100080E0180708F4E4CE01C0FFCF1F910F91D1
:10032000FF90EF90DF90CF90BF90AF909F908F9015
:100330007F906F90089589ED91E040E855E260E08C
:1003400070E00E944B0289ED91E00E947F038823B8
:10035000D1F30895F999FECF72BD61BDF89A80B5C9
:100360000895F999FECF1FBA72BD61BD40BD0FB6A9
:10037000F894FA9AF99A0FBE089508951F920F9271
:100380000FB60F9211242F933F934F938F939F9308
:10039000EF93FF938091C00082FD1DC04091C60085
:1003A00020919101309192012F5F3F4F2F73307058
:1003B00080919301909194012817390771F0E09191
:1003C0009101F0919201EF5AFE4F408330939201D8
:1003D0002093910102C08091C600FF91EF919F91FF
:1003E0008F914F913F912F910F900FBE0F901F90C3
:1003F0001895E091E501F091E601E05CFF4F8191F5
:10040000919120813181805C9F4F821B930B60E42E
:1004100070E00E94BA05892B11F00E94BD01089579
:100420001F920F920FB60F9211242F933F938F9329
:100430009F93EF93FF932091D5013091D601809146
:10044000D7019091D8012817390731F48091C10064
:100450008F7D8093C10014C0E091D701F091D80145
:10046000EB56FE4F20818091D7019091D8010196E3
:100470008F7390709093D8018093D7012093C6001A
:10048000FF91EF919F918F913F912F910F900FBE10
:100490000F901F901895AF92BF92DF92EF92FF924C
:1004A0000F931F93CF93DF93EC017A018B01DD242F
:1004B000403081EE580780E0680780E0780711F04F
:1004C000DD24D39491E0A92EB12CEC89FD89DD20A7
:1004D00069F0C50108A002C0880F991F0A94E2F7CD
:1004E000808360E079E08DE390E005C0108260E8F1
:1004F00074E88EE190E0A80197010E94CD0521509B
:10050000304040405040569547953795279580E1BB
:100510002030380720F0DD2011F0DD24D6CFE88927
:10052000F9893083EA89FB89208319A2EE89FF8942
:10053000408121E030E0C9010C8C02C0880F991F76
:100540000A94E2F7482B4083EE89FF894081C90174
:100550000D8C02C0880F991F0A94E2F7482B408344
:10056000EE89FF894081C9010E8C02C0880F991F56
:100570000A94E2F7482B4083EE89FF8980810F8C33
:1005800002C0220F331F0A94E2F72095282320830C
:10059000DF91CF911F910F91FF90EF90DF90BF906F
:1005A000AF900895DC011C96ED91FC911D97E05CE5
:1005B000FF4F8191919120813181805C9F4F821BFF
:1005C000930B60E470E00E94BA050895DC011C966C
:1005D000ED91FC911D97E05CFF4F20813181E0544B
:1005E000F040DF01AE5BBF4F8D919C9111972817B2
:1005F000390719F42FEF3FEF07C08D919C91E80F59
:10060000F91F8081282F30E0C9010895DC011C9674
:10061000ED91FC911D97E05CFF4F20813181E0540A
:10062000F040DF01AE5BBF4F8D919C911197281771
:10063000390719F42FEF3FEF10C08D919C9111975E
:10064000E80FF91F20818D919C91119701968F736E
:10065000907011969C938E9330E0C9010895DC014F
:1006600091968C919197882339F05496ED91FC9155
:100670005597808186FFF9CF91961C920895CF936C
:10068000DF93EC01EE85FF85E05CFF4F2081318137
:10069000E054F0402F5F3F4F2F733070DF01AE5BAF
:1006A000BF4F8D919C91119728173907D1F3E05CCA
:1006B000FF4F80819181E054F040E80FF91F608383
:1006C000EE85FF85E05CFF4F31832083EE89FF8953
:1006D000208181E090E00F8C02C0880F991F0A945E
:1006E000E2F7282B208381E089A3EC89FD898081B2
:1006F0008064808381E090E0DF91CF91089581E074
:1007000008951092DC011092DB0188EE93E0A0E0E6
:10071000B0E08093DD019093DE01A093DF01B09300
:10072000E0018FE291E09093DA018093D90181E5B5
:1007300091E09093E6018093E50185E991E0909343
:10074000E8018093E70185EC90E09093EA018093C3
:10075000E90184EC90E09093EC018093EB0180EC54
:1007600090E09093EE018093ED0181EC90E0909306
:10077000F0018093EF0182EC90E09093F20180937E
:10078000F10186EC90E09093F4018093F30184E012
:100790008093F50183E08093F60187E08093F70171
:1007A00085E08093F80181E08093F9010895089530
:1007B000CF93DF930E9460050E94D7030E949B01A4
:1007C000C9EFD1E00E945F002097E1F30E94F90198
:1007D000F9CFCF92DF92EF92FF920F931F93CF93B7
:1007E000DF937C016B018A01C0E0D0E00FC0D6012D
:1007F0006D916D01D701ED91FC910190F081E02D9B
:10080000C7010995C80FD91F0150104001151105E6
:1008100071F7CE01DF91CF911F910F91FF90EF9073
:10082000DF90CF900895EF92FF920F931F938C016A
:10083000DC01ED91FC910190F081E02D6DE00995D6
:100840007C01D801ED91FC910190F081E02DC8016F
:100850006AE009959C012E0D3F1DC9011F910F9162
:10086000FF90EF900895CF93DF93EC016115710530
:1008700019F420E030E00FC0DB010D900020E9F713
:100880001197A61BB70BE881F9810280F381E02D57
:10089000AD0109959C01C901DF91CF9108954F9257
:1008A0005F927F928F929F92AF92BF92CF92DF9290
:1008B000EF92FF920F931F93DF93CF93CDB7DEB7E5
:1008C000A1970FB6F894DEBF0FBECDBF2C01742EDA
:1008D000CB01223008F42AE019A231E2C32ED12C38
:1008E000CC0EDD1E822E9924AA24BB24672D752FE1
:1008F000A50194010E94CD0579018A01C801B701C3
:10090000A50194010E949B05472D461B0894C10830
:10091000D1084A3014F4405D01C0495CF6014083BF
:10092000E114F1040105110521F07E2C5F2DC801B1
:10093000DDCFC201B6010E943304A1960FB6F89430
:10094000DEBF0FBECDBFCF91DF911F910F91FF9002
:10095000EF90DF90CF90BF90AF909F908F907F905F
:100960005F904F900895DC012115310541F4ED9120
:10097000FC910190F081E02D642F099508950E946B
:100980004F040895CF92DF92EF92FF920F931F933F
:10099000CF93DF93EC016A017B012115310541F40E
:1009A000E881F9810190F081E02D642F09951FC045
:1009B0002A303105D1F477FF17C0E881F981019021
:1009C000F081E02D6DE209958C0144275527BA018D
:1009D0004C195D096E097F09CE012AE00E944F047F
:1009E0009801280F391F04C02AE00E944F049C017F
:1009F000C901DF91CF911F910F91FF90EF90DF9090
:100A0000CF900895EF92FF920F931F937B019A016D
:100A10000027F7FC0095102FB801A7010E94C2041F
:100A20001F910F91FF90EF9008950E943304089555
:100A30001F920F920FB60F9211242F933F938F9313
:100A40009F93AF93BF938091FF0190910002A0917B
:100A50000102B0910202309103020196A11DB11D65
:100A6000232F2D5F2D3720F02D570196A11DB11D8D
:100A7000209303028093FF0190930002A093010250
:100A8000B09302028091FB019091FC01A091FD01C5
:100A9000B091FE010196A11DB11D8093FB019093C1
:100AA000FC01A093FD01B093FE01BF91AF919F9116
:100AB0008F913F912F910F900FBE0F901F9018951F
:100AC000789484B5826084BD84B5816084BD85B529
:100AD000826085BD85B5816085BDEEE6F0E08081F0
:100AE00081608083E1E8F0E0108280818260808311
:100AF000808181608083E0E8F0E080818160808394
:100B0000E1EBF0E0808184608083E0EBF0E08081C5
:100B100081608083EAE7F0E0808184608083808167
:100B2000826080838081816080838081806880830F
:100B30001092C1000895629FD001739FF001829FBF
:100B4000E00DF11D649FE00DF11D929FF00D839F5C
:100B5000F00D749FF00D659FF00D9927729FB00DF9
:100B6000E11DF91F639FB00DE11DF91FBD01CF010C
:100B70001124089597FB092E07260AD077FD04D08B
:100B80002ED006D000201AF4709561957F4F0895FD
:100B9000F6F7909581959F4F0895A1E21A2EAA1B12
:100BA000BB1BFD010DC0AA1FBB1FEE1FFF1FA2171D
:100BB000B307E407F50720F0A21BB30BE40BF50B1A
:100BC000661F771F881F991F1A9469F760957095A3
:100BD000809590959B01AC01BD01CF010895AA1BA2
:100BE000BB1B51E107C0AA1FBB1FA617B70710F018
:100BF000A61BB70B881F991F5A95A9F7809590954A
:100C0000BC01CD010895EE0FFF1F0590F491E02D7A
:060C10000994F894FFCFE7
:100C1600627974653D002F76616C75653D00202014
:100C2600627974653D000900646563696D616C20D5
:100C360076616C75653D0001000200000000003F12
:0C0C460003E903D2020603E6022F0300BC
:00000001FF
